:020000040800F2
:10000000A8190020E90B0008790600087B06000803
:100010007F0600088306000887060008000000002D
:100020000000000000000000000000008B06000837
:100030008D060008000000002B4E00088109000812
:10004000030C0008030C0008030C0008030C000854
:10005000030C0008030C0008030C0008030C000844
:10006000030C0008030C0008030C0008030C000834
:10007000030C0008030C0008030C0008030C000824
:10008000030C0008030C0008030C0008030C000814
:10009000030C0008030C0008030C0008030C000804
:1000A000030C0008030C0008030C0008030C0008F4
:1000B000030C000861050008030C0008030C00088D
:1000C000030C0008030C0008030C0008030C0008D4
:1000D000030C0008530B000801060008030C00087D
:1000E000030C0008030C0008030C0008030C0008B4
:1000F000030C0008030C0008030C0008030C0008A4
:10010000030C0008030C0008030C0008030C000893
:10011000030C0008030C0008030C0008030C000883
:10012000030C0008030C0008030C0008030C000873
:1001300000F002F800F03CF80AA090E8000C8244BD
:100140008344AAF10107DA4501D100F031F8AFF29A
:10015000090EBAE80F0013F0010F18BFFB1A43F0A5
:1001600001031847604F0000804F0000103A24BF81
:1001700078C878C1FAD8520724BF30C830C144BF0C
:1001800004680C607047000000230024002500264E
:10019000103A28BF78C1FBD8520728BF30C148BFEA
:1001A0000B6070471FB504F005FF1FBD10B510BDF3
:1001B00004F0CAFE1146FFF7F5FF00F079F904F0EC
:1001C000E8FE03B4FFF7F2FF03BC00F069FC000097
:1001D00010B50246012009E0F84B1B5C012B03D14E
:1001E0000023F64C235403E0431CD8B22128F3DB50
:1001F00000BFF24B995410BD30B504460D46F0488F
:10020000007908B9002030BDED480079012800D1FF
:10021000F9E7EB480079022806D1E94A917950794B
:10022000FFF7D6FF0220EEE70320ECE70146E448A3
:1002300040788A7890420AD14878E14A9070C8782C
:100240001071087950714879907101207047002031
:10025000FCE708B525E0DA48C079012802D108207A
:1002600004F011FC6A460021D648006803F0DBFA6E
:1002700005462846FFF7DAFF0446012C11D1D24883
:10028000006808B9012000E00020CF4908604FF065
:100290000A00CE490880CA4A91795079FFF7ACFF2D
:1002A00000BFD8E770B505460E460120C849086072
:1002B0004FF000040CE000BF4021C64801F05BFA9B
:1002C0000028F9D0295DC34801F0E7F9601CC4B2E9
:1002D000B442F0DB00BF4021BE4801F04CFA0028D8
:1002E000F9D00020BC490870B949086070BD2DE9FB
:1002F000F05F04460D4616461F46DDE90B9ADDF811
:1003000028804FF0000B04F069FD8346B348047069
:1003100045708670C77080F8048080F8059080F87A
:1003200006A00721FFF7BEFF584604F05BFDBDE8BD
:10033000F09F1FB500241CE003AA0021A848006814
:1003400003F04DFF012412E09D48037A0022009241
:10035000CDE9012302465178107800232246FFF7A9
:10036000C6FF42F2107000F039FB601CC4B2212CB1
:10037000EADBE1E7002421E09148C07901280ED1B1
:100380009748006803F0DAFF642000F04AFB9548C4
:10039000006808B9012000E0002092490860884800
:1003A000C07958B904F01AFD0446082004F0D9FABF
:1003B000032004F068FB204604F014FDDCE770B570
:1003C0000446002500BF002003F083FE8449086036
:1003D000002003F0A2F97B49086002F063FB04F0FF
:1003E000FDFC05460323804A0021AFF2770004F0AC
:1003F000C3F807237D4A0021AFF2C90004F0BCF81E
:1004000008237B4A0021AFF2B51004F0B5F80A20AA
:1004100004F039FB284604F0E5FC70BD012004E03F
:100420000021664A1154411CC8B22128F8DB002182
:10043000634AD1710121614A51702621604A1170CD
:100440000321517000219170D1701171517191711E
:100450002A21117270477FB505460C460121022002
:1004600000F07EFFADF80850ADF804400020ADF874
:100470000A00ADF8060001A95E4801F0A9FA0122C0
:1004800011465C4801F0F9FD1D208DF800000020A8
:100490008DF8010003208DF8020001208DF8030083
:1004A000684600F0C6FB0121524801F0C0FD7FBD47
:1004B00010B500F06DFA00F0EDFA00F0CDF94FF450
:1004C000165000F0EFF941F61F4141F28730FFF777
:1004D000C2FFFFF7A3FF02F0ACF90A23464A00214E
:1004E000AFF2251004F048F802F0C4FA002010BD65
:1004F000FEB50026012430E03048005D01282AD1F5
:100500003E4800782044C6B2032E24D100202B4957
:1005100008550120C870002038490870012512E0F4
:100520002748037A012203218DE80E00014608784E
:1005300002232A460321FFF7DAFE42F2107000F090
:100540004DFA681CC5B2212DEADB01201C49C87197
:10055000032004F006FA601CC4B2212CCCDBFEBDE3
:1005600010B502F07CF90121224802F020F808B30E
:100570000121204802F02CF81148C079D0B9134865
:10058000008870B91748006808B9012000E0002011
:1005900014490860FFF7ACFF18480078401C174961
:1005A00008700A480088002804DD08480088401EBA
:1005B0000649088002F06EF910BD00009D0700207A
:1005C000940700200C000020940123420200002028
:1005D000A401244200440040050000201000002037
:1005E0000800002094812142900600209002002003
:1005F0009003002000040040900100200000002033
:1006000000B591B002F02BF940F22551174801F0E6
:10061000C8F830B3154801F044F8C1B21448027864
:100620000078401C124B187001A8815418460078BD
:10063000401E01A9085C262804D18DF80400012081
:10064000194608700A480078401E01A9085C2A284B
:1006500007D100200649087001A90648006803F088
:100660009DF902F017F911B000BD000000440040F0
:10067000050000200C000020704700BFFEE700BF0F
:10068000FEE700BFFEE700BFFEE7704770470000CF
:1006900000210020674A126842F48032654B1A60DC
:1006A00000BF644A126802F40030491C10B9B1F569
:1006B000A06FF6D15F4A126812F4003F01D001200A
:1006C00000E00020012842D15B4A126842F010028B
:1006D000594B1A601A46126822F003021A601A4631
:1006E000126842F002021A60524A5268514B5A6034
:1006F0001A4652685A601A46526842F480625A603A
:100700001A46526822F47C125A601A46526842F421
:10071000E8125A601A46126842F080721A6000BFEE
:10072000444A126812F0007FFAD0424A526822F01E
:100730000302404B5A601A46526842F002025A6065
:1007400000BF3C4A526802F00C02082AF9D17047F7
:1007500010B5FFF79DFF10BD10B53648006840F09A
:10076000010034490860084640683449084031496E
:10077000486008460068324908402E49086008462B
:10078000006820F4802008600846406820F4FE00DD
:1007900048604FF41F008860FFF7DAFF4FF00060F9
:1007A0002849086010BD10B5002100200022214B0F
:1007B0005B6803F00C0121B1042906D0082928D177
:1007C00007E0214B214C236027E01F4B1F4C236087
:1007D00023E0184B5B6803F47010164B5B6803F45E
:1007E0008032022303EB904022B9194B4343174C4C
:1007F00023600DE00F4B5B6813F4003F04D0144BF3
:100800004343124C236003E00F4B43430F4C2360E0
:1008100003E00D4B0D4C236000BF00BF054B5B6830
:10082000C3F303130B4CE15C084B1B68CB40074C34
:10083000236010BD00100240002002400000FFF8BD
:10084000FFFFF6FE08ED00E000127A00180000201D
:1008500000093D001C00002008B50121482000F0DF
:1008600072FD2020ADF8000010208DF80300032059
:100870008DF802006946094800F0B2FA20210748C5
:1008800000F059FB2020ADF800006946044800F054
:10089000A7FA2021024800F04EFB08BD000C0140E1
:1008A0000018014010B586B0044601214FF4827053
:1008B00000F049FD0121480400F052FD4FF40070A2
:1008C000ADF8140010208DF8170003208DF81600E5
:1008D00005A9274800F084FA0420ADF81400182078
:1008E0008DF8170005A9234800F07AFA0820ADF822
:1008F000140004208DF8170005A91E4800F070FAB6
:100900000121480400F046FD00214FF4003000F0C2
:1009100041FD01940020ADF80800ADF80A00ADF8E3
:100920000C00ADF810000C20ADF80E0001A9124823
:1009300000F0B7FD26208DF8000003208DF801009F
:100940008DF8020001208DF80300684600F071F96F
:10095000012240F22551084800F03BFE01210648E3
:1009600000F02BFE00200549086006B010BD000015
:10097000002001400008014000440040A40124423E
:1009800010B501F06CFF02F0ACF801F083FF10BD70
:1009900010B56FF0040000F0A0F93948006839493B
:1009A000B0FBF1F038490870354800683549B0FBB4
:1009B000F1F441F2883044430520344908804FF077
:1009C000E020006940F002004FF0E0210861084695
:1009D0004461006940F00100086110BD70B5034634
:1009E00000224FF0E0267569274E367803FB06F4A7
:1009F00000BF4FF0E026B16910E04FF0E026B0698B
:100A000088420BD0884202D20E1A324402E02E1ADB
:100A10000E4432440146A24200D300E0EDE700BF9D
:100A200070BD70B504461A480078012811D11748E6
:100A30000088844206DB1548008894FBF0F52846C0
:100A400004F0ECF81148008894FBF0F100FB114031
:100A500084B24FF47A7104FB01F0FFF7BFFF70BD61
:100A600010B504460948008894FBF0F100FB1140E2
:100A700084B24FF47A7104FB01F0FFF7AFFF10BDB1
:100A80001800002000127A002C0000202E00002008
:100A90007200002010B54FF4A06000F0C5F810BD42
:100AA000014600BF704700BF4A4A128812F0400F4B
:100AB000FAD0C2B2484B1A80704710B586B00446CF
:100AC000012144F2050000F03EFC4FF40070ADF847
:100AD000140003208DF8160018208DF8170005A9C2
:100AE0003E4800F07DF94FF48060ADF8140004201A
:100AF0008DF8170005A9394800F072F925208DF806
:100B0000000003208DF801008DF8020001208DF80F
:100B10000300684600F08DF801940020ADF808004D
:100B2000ADF80A00ADF80C00ADF810000C20ADF8DF
:100B30000E0001A9274800F0B4FC012240F2255123
:100B4000244800F046FD0121224800F036FD06B0A1
:100B500010BD10B501F083FE40F225511D4800F094
:100B600020FE10B31B4800F09CFDC4B21C48008856
:100B700010F4004F2BD11A48008810F4804F0CD08D
:100B80000A2C03D000201649088020E01448008871
:100B900040F400401249088019E00D2C06D110489D
:100BA000008840F480400E49088010E00C4800881E
:100BB000C0F30D000B490C5409480088401C08493B
:100BC000088008460088C72801DD0020088001F061
:100BD00061FE10BD003801400438014000080140AA
:100BE00030000020FE0700200948804709480047E0
:100BF000FEE7FEE7FEE7FEE7FEE7FEE7FEE7FEE7CD
:100C0000FEE7FEE704480549054A064B7047000029
:100C10005907000831010008A8130020A819002076
:100C2000A8150020A815002036490143364A116056
:100C3000704770B5002100230F22C4784CB3324CAA
:100C4000246804F4E064C4F5E0644FEA1421C1F1BF
:100C5000040322FA01F2447804FA03F1847804EAE6
:100C6000020444EA01014FEA0111284C0678A1551B
:100C7000047804F01F054FF0010404FA05F4057828
:100C80004FEA65154FF0E02606EB8505C5F80041F3
:100C900009E0047804F01F050124AC401C4D0678DF
:100CA000761145F8264070BD1A4A0A4002431A4B95
:100CB0001A60704741B1194A126842EA00024FF0C7
:100CC000E023C3F8102D07E0144A126822EA00025C
:100CD0004FF0E023C3F8102D7047042808D14FF0DF
:100CE000E021096941F004014FF0E022116107E0C1
:100CF0004FF0E021096921F004014FF0E022116179
:100D0000704700000000FA050CED00E000E400E090
:100D100080E100E080FFFF1F08ED00E010ED00E043
:100D200010B50446CA48844208D10121042000F0CD
:100D300024FB0021042000F020FB46E0C54884424B
:100D400008D10121082000F018FB0021082000F044
:100D500014FB3AE0C048844208D10121102000F081
:100D60000CFB0021102000F008FB2EE0BB48844261
:100D700008D10121202000F000FB0021202000F0FC
:100D8000FCFA22E0B648844208D10121402000F05C
:100D9000F4FA0021402000F0F0FA16E0B148844255
:100DA00008D10121802000F0E8FA0021802000F025
:100DB000E4FA0AE0AC48844207D10121801500F032
:100DC000DCFA0021A01500F0D8FA10BD10B5012101
:100DD000084600F0D2FA0021012000F0CEFA10BD42
:100DE0002DE9F041024600250026002000230024C2
:100DF000002791F803C00CF00F0591F803C01CF018
:100E0000100F03D091F802C04CEA0505B1F800C0FC
:100E10001CF0FF0F31D0146800202BE04FF0010CC4
:100E20000CFA00F3B1F800C00CEA03069E4220D190
:100E300083004FF00F0C0CFA03F7BC4305FA03FCD8
:100E40004CEA040491F803C0BCF1280F06D14FF01E
:100E5000010C0CFA00FCC2F814C00AE091F803C0BF
:100E6000BCF1480F05D14FF0010C0CFA00FCC2F8A0
:100E700010C0401C0828D1D31460B1F800C0BCF1E8
:100E8000FF0F34DD546800202EE000F1080C4FF015
:100E9000010808FA0CF3B1F800C00CEA03069E4200
:100EA00021D183004FF00F0C0CFA03F7BC4305FA75
:100EB00003FC4CEA040491F803C0BCF1280F05D1EF
:100EC00000F1080C08FA0CF8C2F8148091F803C07D
:100ED000BCF1480F07D100F1080C4FF0010808FAE7
:100EE0000CF8C2F81080401C0828CED35460BDE82E
:100EF000F0814FF6FF710180022181700421C170E1
:100F000070470246002093680B4201D0012000E0A8
:100F1000002070470146886880B270470246002072
:100F2000D3680B4201D0012000E000207047014649
:100F3000C86880B2704701617047416170470AB16B
:100F4000016100E041617047C16070474FF4803239
:100F50000A438261816182618269826970470246C7
:100F60000020424B18684FF68073184040EA021088
:100F700008433E4B186070473D49C8617047F0B563
:100F80000A46002300240021002500F00046B6F1A7
:100F9000004F02D1354EF16901E0344E7168C0F363
:100FA000034583B200F44016B6F5401F08D121F086
:100FB00070612E4E766826F070662C4F7E6012E0CF
:100FC00000F48016B6F5801F06D1032606FA05F454
:100FD000A14341F0706106E0460D360103FA06F6C2
:100FE000B14341F0706122B1460D360103FA06F6B5
:100FF000314300F00046B6F1004F02D11B4EF161C3
:1010000001E01A4E7160F0BD30B500228B071C0F55
:101010000F2303FA04F2154B08338C1053F82430D5
:101020009343124C08348D1044F8253023468C101D
:1010300053F824308C07240F00FA04F423430B4C9C
:1010400008348D1044F8253030BD0A4908607047D7
:1010500000080140000C0140001001400014014054
:1010600000180140001C0140002001400000014028
:1010700000002042DC002042DB48006840F0010014
:10108000D949086008464068D8490840D6494860B0
:1010900008460068D6490840D349086008460068F9
:1010A00020F4802008600846406820F4FE00486074
:1010B0004FF41F0088607047CB49096821F48031E4
:1010C000C94A11601146096821F480211160B0F508
:1010D000803F03D0B0F5802F0ED106E0C2490968E9
:1010E00041F48031C04A116007E0BF49096841F40A
:1010F000A021BD4A116000E000BF00BF704710B5DD
:1011000001460022002300204A11012A02D1B64CD8
:10111000236806E0022A02D1B34C236A01E0B24CF4
:10112000636A01F01F02012494401C4201D0012097
:1011300000E0002010BD70B500240025002600BF8F
:101140003120FFF7DCFF0646641CB4F5A06F01D028
:10115000002EF5D03120FFF7D2FF08B1012500E0C5
:101160000025284670BD014600209F4A106820F0E7
:10117000F80040EAC100106070479E49086070475F
:1011800002460020984B586820F47C1042EA010384
:101190001843954B5860704796490866704701465A
:1011A0000020914A506820F00300084350607047C7
:1011B0008D48406800F00C007047014600208A4AC4
:1011C000506820F0F000084350607047014600204E
:1011D000854A506820F4E06008435060704701463B
:1011E0000020814A506820F4605040EAC1005060FD
:1011F000704729B17C4A527A02437B4B5A7206E00F
:10120000794A527AC343DBB21A40774B5A7270471D
:1012100079490860704701460020734A506820F4FD
:1012200040400843506070470021744A11706E4A74
:1012300082F82010012802D0042808D103E00121FF
:101240006E4A117004E005216C4A117000E000BF85
:1012500000BF70476A49086070476349096A0143E3
:10126000614A1162704767490860704730B50021D4
:101270000022002400235C4D6D6805F00C0121B1B3
:10128000042905D0082923D105E05F4D056022E03F
:101290005D4D05601FE0544D6D6805F47012524DB0
:1012A0006D6805F48034022505EB92421CB9574D58
:1012B000554305600BE04C4D6D6815F4003F03D0BD
:1012C000524D5543056002E04F4D5543056002E025
:1012D0004D4D056000BF00BF434D6D6805F0F00146
:1012E00009094B4D6B5C0568DD4045603E4D6D68FE
:1012F00005F4E061090A464D6B5C4568DD40856098
:10130000394D6D6805F46051C90A414D6B5C456803
:10131000DD40C560344D6D6805F44041890B3D4D9D
:101320006B5CC568B5FBF3F5056130BD29B12E4A8C
:10133000526902432C4B5A6104E02B4A52698243A2
:10134000294B5A61704729B1274A92690243264BBB
:101350009A6104E0244A92698243234B9A61704760
:1013600029B1214AD26902431F4BDA6104E01E4AC7
:10137000D26982431C4BDA61704729B11A4AD2689C
:101380000243194BDA6004E0174AD2688243164BD5
:10139000DA60704729B1144A12690243124B1A618C
:1013A00004E0114A126982430F4B1A6170471A49CF
:1013B000086070470F49C86470470B49C87170478F
:1013C0000948406A40F0807007494862704701460A
:1013D0000020054A92680A4201D0012000E0002066
:1013E0007047014988727047001002400000FFF802
:1013F000FFFFF6FE00004242D800424220100240A9
:10140000800442423C04424200127A0000093D003E
:1014100038000020480000204004424210B5044635
:10142000FC48844209D101218803FFF7A6FF00216F
:101430004FF48040FFF7A1FF32E0F748844209D122
:1014400001214804FFF7A6FF00214FF40030FFF709
:10145000A1FF25E0F148844209D101218804FFF76A
:1014600099FF00214FF48020FFF794FF18E0EC482B
:10147000844209D10121C804FFF78CFF00214FF4F9
:101480000020FFF787FF0BE0E648844208D10121E6
:101490000805FFF77FFF00214FF48010FFF77AFF68
:1014A00010BD2DE9F04786B005460E460024A24641
:1014B00000BFA1460027B08900B100BF2F462C8A8B
:1014C0004CF6FF700440F08804432C82AC894EF641
:1014D000F3100440B08831890843718908430443FC
:1014E000AC81AC8A4FF6FF400440B0890443AC8223
:1014F00001A8FFF7BBFEC748874202D1DDF810A064
:1015000001E0DDF80CA0A88910F4004F08D00AEB28
:10151000CA0000EB0A1031684900B0FBF1F807E09F
:101520000AEBCA0000EB0A1031688900B0FBF1F841
:101530006420B8FBF0F004012009642101FB10894C
:10154000A88910F4004F08D0322000EBC900B0FB8E
:10155000F1F000F00700044308E0322000EB09102E
:101560006421B0FBF1F000F00F0004432C8106B0C1
:10157000BDE8F0874FF41651016000218180C180E1
:1015800001810C21418100218181704710B5024603
:101590000020108A4FF2FF0318400B884C88234329
:1015A0008C882343CC8823431843108210BD00212C
:1015B000018041808180C180704721B1828942F4DD
:1015C0000052828104E082894DF6FF731A408281C5
:1015D0007047F0B503460024002600250020A1F541
:1015E00010676A3F00D100BF1846C1F3421401F0F2
:1015F0001F06012707FA06F5012C01D10C3004E083
:10160000022C01D1103000E014301AB107682F43CA
:10161000076002E00768AF430760F0BD10B51AB17C
:10162000838A0B43838204E0838ACC43A4B22340A1
:10163000838210BD028A4FF6F0731A400282028A3A
:101640000A430282704782894FF2FF731A408281F7
:1016500082890A438281704721B1828942F0020265
:10166000828104E082894FF6FD731A4082817047BF
:10167000028A4FF6DF731A400282028A0A4302820C
:10168000704721B1028A42F48042028204E0028A59
:101690004BF6FF731A4002827047C1F30802828042
:1016A000704701468888C0F308007047818941F07F
:1016B000010181817047028BD2B20283028B42EA20
:1016C000012202837047028B02F47F420283028B65
:1016D0000A430283704721B1828A42F0200282824B
:1016E00004E0828A4FF6DF731A408282704721B18C
:1016F000828A42F01002828204E0828A4FF6EF73FF
:101700001A408282704721B1828A42F008028282A6
:1017100004E0828A4FF6F7731A408282704721B143
:10172000828942F40042828103E08289C2F30E0280
:101730008281704721B1828A42F40062828204E091
:10174000828A4FF2FF731A4082827047828A4FF674
:10175000FB731A408282828A0A438282704721B1D7
:10176000828A42F00202828204E0828A4FF6FD738E
:101770001A408282704702460020B1F5007F00D1F6
:1017800000BF13880B4201D0012000E00020704709
:1017900001F40072B2F5007F00D100BFCA4302809D
:1017A000704770B502460024002300250020A1F5F3
:1017B00010666A3E00D100BFC1F3421501F01F035D
:1017C000012606FA03F3012D02D19689334006E083
:1017D000022D02D1168A334001E0968A33400C1262
:1017E000012606FA04F41688344013B10CB1012026
:1017F00000E0002070BD10B500220023A1F51064A8
:101800006A3C00D100BF0A1201249440A3B2DC4319
:10181000048010BD003801400044004000480040F2
:10182000004C00400050004010B50446FF48844280
:1018300008D10121C014FFF7A0FD0021E014FFF73B
:101840009CFDC4E0B4F1804F08D101210846FFF7A8
:10185000A1FD00210120FFF79DFDB8E0F44884427E
:1018600008D101210220FFF795FD00210220FFF79A
:1018700091FDACE0EF48844208D101210420FFF73C
:1018800089FD00210420FFF785FDA0E0EA4884429D
:1018900008D101210820FFF77DFD00210820FFF776
:1018A00079FD94E0E548844208D101211020FFF73A
:1018B00071FD00211020FFF76DFD88E0E0488442B3
:1018C00008D101212020FFF765FD00212020FFF72E
:1018D00061FD7CE0DB48844208D101214014FFF720
:1018E0004CFD00216014FFF748FD70E0D6488442AB
:1018F00009D10121C804FFF740FD00214FF4002069
:10190000FFF73BFD63E0D148844209D1012108057E
:10191000FFF733FD00214FF48010FFF72EFD56E056
:10192000CB48844209D101214805FFF726FD00215B
:101930004FF40010FFF721FD49E0C648844208D16A
:1019400001214020FFF726FD00214020FFF722FD66
:101950003DE0C148844208D101218020FFF71AFDF3
:1019600000218020FFF716FD31E0BC48844208D1F9
:1019700001218015FFF70EFD0021A015FFF70AFDDC
:1019800025E0B748844209D101210804FFF7F5FC9E
:1019900000214FF48030FFF7F0FC18E0B14884429A
:1019A00009D101214804FFF7E8FC00214FF4003081
:1019B000FFF7E3FC0BE0AC48844208D10121880426
:1019C000FFF7DBFC00214FF48020FFF7D6FC10BDB1
:1019D00000220288954B98420ED09A4B98420BD029
:1019E000B0F1804F08D0924B984205D0914B98426D
:1019F00002D0914B984204D14FF68F731A404B8816
:101A00001A438E4B984207D08D4B984204D04FF624
:101A1000FF431A40CB881A4302808B8883850B884A
:101A20000385824B98420BD0864B984208D08C4B52
:101A3000984205D08B4B984202D08B4B984201D1F3
:101A40000B7A038601238382704770B5002400223D
:101A50000023058C4FF6FE7635400584028C838882
:101A6000048B4FF68F752C40B51E2C400D882C43EF
:101A7000751E2A400D892A434D882A436B4DA84282
:101A80000BD0704DA84208D0754DA84205D0754DB9
:101A9000A84202D0744DA84213D14FF6F7752A40E0
:101AA0004D892A434FF6FB752A408D882A434FF60D
:101AB000FF652B404FF6FF552B408D892B43CD8979
:101AC0002B4383800483CD888586028470BD70B5E6
:101AD000002400220023058C4FF6EF763540058464
:101AE000028C8388048B48F6FF752C404FF6FF4527
:101AF0002C400D882D0644EA15444FF6DF752A4028
:101B00000D892D0542EA15424D882D0542EA154200
:101B1000464DA84202D04B4DA8421BD14FF67F75CF
:101B20002A404D892D0542EA15424FF6BF752A40DD
:101B30008D882D0542EA15424FF6FF352B404FF2B6
:101B4000FF752B408D89AD0443EA1543CD89AD0463
:101B500043EA154383800483CD880587028470BDE2
:101B600070B5002400220023058C4FF6FF66354037
:101B70000584028C8388848B4FF68F752C404FF63A
:101B8000FC752C400D882C434FF6FF552A400D89DB
:101B90002D0642EA15424D882D0642EA1542234D94
:101BA000A84202D0274DA8421BD14FF2FF752A4010
:101BB0004D892D0642EA15424FF6FF352A408D88A1
:101BC0002D0642EA15424EF6FF752B404DF6FF7585
:101BD0002B408D892D0543EA1543CD892D0543EA18
:101BE000154383808483CD888587028470BD70B55A
:101BF000002200230024058C4EF6FF763540058434
:101C0000038C8488828B48F6FF752A404FF6FF4587
:101C10002A400D882D0642EA15424DF6FF752B40ED
:101C20000D892D0743EA15434D881FE0002C014024
:101C30000004004000080040000C0040001000407C
:101C40000014004000340140004C014000500140AD
:101C50000054014000180040001C004000200040DB
:101C60000040014000440140004801402D0743EA84
:101C70001543F94DA84202D0F84DA84206D14BF6C3
:101C8000FF752C408D89AD0544EA1544848082831C
:101C9000CD88A0F84050038470BD828B4FF2FF3393
:101CA0001A408283828B0B0642EA1342828370477A
:101CB000F0B50C461546002200210026078C4EF692
:101CC000FF7C07EA0C070784828B018C27073E0CF8
:101CD00040F6FF473A402F0642EA17421F0742EA02
:101CE0001742DD4FB8420ED0DC4FB8420BD0B0F1F6
:101CF000804F08D0DA4FB84205D0DA4FB84202D050
:101D0000D94FB84206D14DF6FF77394046F4805797
:101D1000394305E047F6FF57394044F480573943CB
:101D200082830184F0BD828B4FF6F3731A40828365
:101D3000828B0A4382837047F0B50C461546002219
:101D400000210026078C4FF6FF6C07EA0C0707847A
:101D5000828B018C27063E0C4FF60C773A401F050C
:101D600045EA17473A43BC4FB8420ED0BB4FB84282
:101D70000BD0B0F1804F08D0B94FB84205D0B94F61
:101D8000B84202D0B84FB84206D14FF6FF5739409B
:101D900046F48077394305E04FF2FF57394044F469
:101DA0008077394382830184F0BD028B4FF2FF3389
:101DB0001A400283028B0B0642EA134202837047E9
:101DC000F0B50C461546002200210026078C4FF680
:101DD000EF7C07EA0C070784028B018C27053E0C79
:101DE00040F6FF473A401F0742EA17422F0642EAF1
:101DF0001742994FB8420ED0984FB8420BD0B0F16D
:101E0000804F08D0964FB84205D0964FB84202D0C6
:101E1000954FB84206D14FF6DF77394046F01007AC
:101E2000394305E04FF65F77394044F010073943F6
:101E300002830184F0BD028B4FF6F3731A400283D4
:101E4000028B0A4302837047F0B50C461546002208
:101E50000021068C4FF6FE773E400684028B018CF3
:101E60004FF60C7632401E0545EA164632437A4E4E
:101E7000B0420ED0794EB0420BD0B0F1804F08D0B6
:101E8000774EB04205D0774EB04202D0764EB04287
:101E900006D14FF6FD76314044F00106314305E0AE
:101EA0004FF6F576314044F0010631430283018458
:101EB000F0BD70B505460C46674885420ED06748B0
:101EC00085420BD0B5F1804F08D06548854205D0DA
:101ED0006448854202D06448854200D100E000BFDA
:101EE000208850B92389A28861882846FFF7ACFF73
:101EF000E1882846FFF79FFF25E0208804280AD1C3
:101F00002389A28861882846FFF75AFFE18828467E
:101F1000FFF74BFF17E0208808280AD12389A28801
:101F200061882846FFF708FFE1882846FFF7FBFE97
:101F300009E02389A28861882846FFF7B9FEE18875
:101F40002846FFF7AAFE70BD2DE9F04105460C4674
:101F500000260127608808B9022600E00026A08834
:101F6000012801D1022700E001272088A0B9238998
:101F7000A28861882846FFF767FFE1882846FFF7B7
:101F80005AFF23893A4631462846FFF719FFE18870
:101F90002846FFF70AFF13E02389A28861882846B4
:101FA000FFF70EFFE1882846FFF7FFFE23893A4638
:101FB00031462846FFF748FFE1882846FFF73BFFF8
:101FC000BDE8F0810A884B881A438B881A43CB8876
:101FD0001A430B891A434B891A438B891A43A0F879
:101FE000442070474FF6FF71818000210180C1803D
:101FF0004180017270470021018041808180C18051
:10200000018141818181C18170470021018041802E
:10201000012181800021C180018170470021018060
:1020200041808180C180018141818181704721B1DE
:10203000028842F00102028004E002884FF6FE733B
:102040001A400280704789B1B0F8442042F400423F
:10205000A0F8442010E00000002C014000340140B2
:102060000004004000080040000C0040B0F844208C
:10207000C2F30E02A0F84420704710B51AB183894C
:102080000B43838104E08389CC43A4B22340838142
:1020900010BD8182704741EA0203A0F848307047C2
:1020A00010B51AB183890B43838104E08389CC4343
:1020B000A4B22340838110BD01894FF6F87211400C
:1020C000018170470A46002101894FF68F7319403C
:1020D00011430181704730B504460D46294620461C
:1020E000FFF7F0FF208940F00700208130BD2DE987
:1020F000F04104460D4616461F46602D06D13B466C
:10210000012231462046FFF75BFE05E03B460122F7
:1021100031462046FFF798FE29462046FFF7D2FFBA
:10212000208940F007002081BDE8F08130B50C46E1
:1021300000210189C9B21D0642EA154525432943FC
:10214000018130BD2DE9F04105460E4617469846FF
:10215000002443463A4631462846FFF7E7FF2C89DC
:102160004FF6F8710C4044F007044FF68F710C40A5
:1021700044F070042C81BDE8F081F0B504460D46B2
:1021800016461F463B46324629462046FFF7CEFFFD
:10219000208940F480402081F0BD01858282704713
:1021A0000A46002101884FF68F73194011430180C0
:1021B0007047F0B50C4615461E460021002200234C
:1021C0000189028B038C4FF6F877394021434FF693
:1021D000FC473A4040F201173A434FF6DD773B4067
:1021E000370545EA17473B43018102830384F0BD6D
:1021F0000A460021018B4FF68F731940114301836A
:1022000070470A460021018B48F6FF7319401306F8
:1022100041EA1341018370470A460021818B4FF642
:102220008F7319401143818370470A460021818BC7
:1022300048F6FF731940130641EA13418183704742
:1022400021B1028842F08002028004E002884FF649
:102250007F731A400280704721B1828842F00402E5
:10226000828004E082884FF6FB731A4082807047B8
:1022700021B1828842F00802828004E082884FF611
:10228000F7731A408280704721B1828842F00102C0
:10229000828004E082884FF6FE731A408280704785
:1022A0000A460021018B4FF6F77319401143018351
:1022B00070470A460021018B4FF2FF731940130645
:1022C00041EA1341018370470A460021818B4FF692
:1022D000F77319401143818370470A460021818BAF
:1022E0004FF2FF731940130641EA1341818370478F
:1022F0000A460021018B4FF6FB73194011430183FD
:1023000070470A460021018B4FF6FF331940130630
:1023100041EA1341018370470A460021818B4FF641
:10232000FB7319401143818370470A460021818B5A
:102330004FF6FF331940130641EA1341818370477A
:102340000A460021018B4FF67F7319401143018328
:1023500070470A460021018BC1F30E01130641EAC2
:102360001341018370470A460021818B4FF67F732A
:1023700019401143818370470A460021818BC1F3C4
:102380000E01130641EA1341818370470A4600217A
:10239000018C4FF6FD7319401143018470470A46C2
:1023A0000021018C4FF6F7731940114301847047E7
:1023B0000A460021018C4FF6DF731940130541EAEC
:1023C0001341018470470A460021018C4FF67F7348
:1023D0001940130541EA1341018470470A46002160
:1023E000018C4FF6FF531940130641EA1341018453
:1023F00070470A460021018C4FF2FF731940130603
:1024000041EA1341018470470A460021018C4DF6D0
:10241000FF731940130741EA13410184704730B537
:10242000002301248C40A3B2048CDD43ADB22C40C8
:102430000484048C02FA01F5ADB22C43048430BD4F
:1024400030B5002304248C40A3B2048CDD43ADB22C
:102450002C400484048C02FA01F5ADB22C430484B0
:1024600030BD70B503460020002418461830012501
:102470008D40ACB21D8CE643B6B235401D8409B127
:10248000082909D100EB6100056825F07005056099
:102490000568154305600CE00D1FADB200EB65004B
:1024A000056825F4E04505600568160645EA164509
:1024B000056070BD21B1028842F00202028004E092
:1024C00002884FF6FD731A400280704721B10288DE
:1024D00042F00402028004E002884FF6FB731A40C7
:1024E0000280704721B1828842F08002828004E03D
:1024F00082884FF67F731A408280704702884FF6B9
:10250000F7731A40028002880A430280704782886B
:102510004FF68F731A40828082880A438280704708
:1025200002894FF6F8731A40028102890A43028138
:10253000704702894FF67F731A40028102890A436D
:10254000028170478184704781857047818670471A
:102550000187704781877047A0F840107047028854
:102560004FF6FF431A40028002880A4302807047F8
:102570000146888E70470146088F70470146888F54
:1025800070470146B1F8400070470146888C70479B
:102590000146088D704702460020138A0B4201D085
:1025A000012000E000207047CA430282704730B526
:1025B0000246002000230024158A05EA01039589BC
:1025C00005EA010413B10CB1012000E0002030BD88
:1025D000CA430282704700007CB5002514E06946BA
:1025E000284602F00EFA064666B9F94850F825402A
:1025F00044B1012C06D0D4E9020100EB81006064F3
:102600000198A064681CC5B23F2DE8D97CBD0024A8
:1026100000BF02E0282002F001FBEE48007800280D
:10262000F8D0ED4800686421B0FBF1F0EA49086099
:102630000846006828B90020E8490870FF2002F029
:1026400022FA00BF02F0CAFB0446E5480068E549EB
:1026500008600020E2490860204602F0C3FBE14820
:102660000068DD490968B0FBF1F0C0F16400DB49A6
:10267000087002F012FCFFF7AFFF142002F0CEFA50
:10268000E0E700B587B0032300228021D648CDE9DA
:102690000323CDE901014FF6FE7300933E2300F5BD
:1026A000FE720021AFF2990001F0BCFF06AACFA193
:1026B0003E2002F025F907B000BD002400BF00BF96
:1026C00002F08CFB0446C6480068401CC449086000
:1026D000204602F087FB02F0DFFBF1E700B587B090
:1026E000032300228021C548CDE90323CDE9010160
:1026F0004FF6FF7300933F2300F5FE720021AFF207
:10270000450001F08FFF06AABDA13F2002F0F8F8B6
:1027100007B000BD04E0002200F8012B4A1E91B270
:102720000029F8D1704770B5C821B948FFF7F2FF0A
:1027300000230FE0581C85B203EB8300B44901EB82
:10274000800405EB850001EB8006002020706660A8
:10275000581C83B2092BEDD303EB8300AC4901EB8A
:1027600080040020207060600846AA49086070BD9F
:1027700070B54FF47C71A848FFF7CCFF4FF480711F
:102780009348FFF7C7FF002413E0601CC5B2C4EBF9
:10279000C40000EB4000A04901EB8003C5EBC5007D
:1027A00000EB400001EB80065E619CA0D864601CD9
:1027B000C4B20B2CE9D3C4EBC40000EB4000964933
:1027C00001EB80030020586194A0D8640020944954
:1027D000086091489349086070BD0021924A1170C9
:1027E000002004E00021914A1154411CC8B208287D
:1027F000F8D300218E4A11708E4A11708E4A1160F2
:102800008E4A1160704700208D4908608D4908701C
:102810008D4908708D4908708D4908708D49086090
:102820006F4908606F4908606B4908606949087022
:10283000704710B502F02CFBFFF7E5FFFFF7CDFF67
:10284000FFF796FFFFF76FFF00F026FF01F004FC93
:10285000FFF744FFFFF715FF02F01BFB10BD7C489C
:102860000078012808D177480078FF2804D27548FD
:102870000078401C73490870704777496A4A12789B
:10288000885C6A49095C744A515C01EBC001694A81
:102890001170704710B500246D480078012830D1C0
:1028A00002F09CFA04466748007820B16548007839
:1028B000401E6449087063480078F8B9624800789F
:1028C000E0B9FFF7DAFF42485A49097850F8210089
:1028D00059490860574800785549097888420DD011
:1028E00055480068806B401C534909688863594803
:1028F0000068401C5749086002F08FFA204602F039
:1029000071FA10BD10B5002451480078012811D18A
:1029100002F064FA04464B48007840B94A4800780F
:10292000FF2804D248480078401C474908702046D8
:1029300002F058FA10BD10B5002402F04FFA044618
:1029400040480078F8B940480078E0B9FFF795FFB3
:102950001F483849097850F8210037490860354840
:1029600000783349097888420DD033480068806B7D
:10297000401C31490968886336480068401C354965
:10298000086002F043FA204602F02CFA10BD10B5A0
:1029900000242F48007801286BD102F01FFA04466A
:1029A0002948007880B128480078401E26490870E0
:1029B0000846007848B92348007838B9204602F024
:1029C00011FAFFF7B8FF54E050E04BE046E000009A
:1029D000E00D0020640000205C0000205800002072
:1029E0007400002060000020E009002075432F4F94
:1029F000532D49492053746174000000E00B0020FE
:102A000075432F4F532D49492049646C65000000E0
:102A1000C808002050000020E00E00203F00000009
:102A2000840000207C000020690000206A00002053
:102A3000670000206800002080000020780000204F
:102A40009000002065000020660000207300002038
:102A5000720000204C000020C24F0008204602F007
:102A6000C1F906E0204602F0BDF902E0204602F07E
:102A7000B9F910BD10B5F848007890B9FFF7FDFE20
:102A8000F6480078F6490870F648F449097850F895
:102A90002100F549086008460068F449086002F022
:102AA000A4F910BD10B50024022002F0B7F802F01E
:102AB00095F904460020EE490860204602F092F99C
:102AC000142002F0ABF802F089F90446E8480068E7
:102AD000E84908600120E8490870204602F082F9C0
:102AE00010BD70B5002602F028FA02F077F906460C
:102AF000E2480068401CE1490860304602F072F983
:102B0000D5480078012857D1DD48007820B1012848
:102B100004D0022809D103E001250BE0002509E0DB
:102B200001250120D649087004E001250020D44980
:102B3000087000BF00BF05B970BDD248046837E017
:102B400002F04CF90646E06A70B3E06A401EE062AB
:102B5000E06A48BB94F8300010F0370F09D014F841
:102B6000300F00F0C800207001206070A4F1300424
:102B700002E0002084F8310094F8300010F0080FD3
:102B800012D104F13404A078BF49097840EA010069
:102B9000BD4908702078BD49085C617840EA0100B1
:102BA00014F83419B94A50546469304602F01AF9DD
:102BB00094F832003F28C3D100BFBDE740F2231094
:102BC0007047704710B590F8342001F10B039B5CFF
:102BD00090F83540E443E4B2234001F10B04A354E0
:102BE00023469B5C33B98B7A90F83640E443E4B2D9
:102BF00023408B7210BD2DE9F04F05460F469046DD
:102C00009946A87AA2490E5C05F10B00805D11F887
:102C100000B00BEBC60000F0FF0A924850F82A40C3
:102C2000002004F12004E0602760207C6FEA0801A6
:102C3000C9B200EA0100207484F81190207CA4F14C
:102C4000200410F0080F0DD194F836008E49097851
:102C500008438D4908708D48805D94F8351008430D
:102C60008A49885529462046FFF7ACFF5046BDE803
:102C7000F08F10B57D4A1268D0617C4A126892F8D4
:102C8000343000F10B02D25C784B1B6893F835307E
:102C90001A43764B1B6893F8344000F10B031A5526
:102CA000827A724B1B6893F836301A4382726F4AED
:102CB000126892F83410754A525C6C4B1B6893F89A
:102CC0003530DB43DBB21A40704B5A541A46525C23
:102CD00052B9664A126892F83620D243D2B26A4B91
:102CE0001B781A40684B1A7010BD014600228A7288
:102CF000002005E0002301F10B021354421CD0B266
:102D00000828F7D3704705E011F8013B00F8013BB4
:102D1000531E9AB2002AF7D170470146002002E004
:102D2000491C421CD0B20A78002AF9D170472DE91B
:102D3000FF4F81B005460F4690469946DDE90EAB40
:102D40000020009002F04AF8009052480468D4B382
:102D500004F1180454F8040C4E490860009802F07D
:102D600041F844F8187CA5760020207660766061F2
:102D700044F814BC44F80CAC44F8108C109824F8B7
:102D8000080C24F8069C0020E077E810207705F076
:102D90000700E076217F01208840A077E17E0120B6
:102DA0008840607700206060E060A0602062A062E0
:102DB0006062E0622063AFF29C306063A4F11804AB
:102DC0004FF0000607E041E0002104F1500040F818
:102DD0002610701CC6B2002EF6D0204602F0ACF8C9
:102DE000204602F057F801F0F9FF00901D4840F826
:102DF00025402448006860610020A06121480068E7
:102E000010B12048006884611E48046004F1340455
:102E1000A0781D49097840EA01001B490870207814
:102E20001A49085C617840EA010014F83419174A1D
:102E300050541948007800F10100174908700098B3
:102E400001F0D0FF002005B0BDE8F08F009801F040
:102E5000C9FF4220F7E70000720000206800002050
:102E600067000020E00D0020800000207800002096
:102E7000740000205C00002064000020900000200E
:102E80008800002084000020690000206A000020E3
:102E9000C24F00087C000020730000202DE9F05F85
:102EA00005460F4691461E464FF0000B2878052830
:102EB00004D0012030700020BDE8F09F09F0800AA6
:102EC000BAF1000F04D029F080094FF0010801E0A9
:102ED0004FF000080020307001F080FF8346B9F108
:102EE000000F30D0B9F1010F41D0B9F1020F03D07A
:102EF000B9F1030F4ED113E0288900EA0704BC4260
:102F000008D1B8F1010F07D12889E14389B20840FF
:102F1000288101E070203070584601F063FF40E0E6
:102F2000288900EA070444B1B8F1010F07D12889C4
:102F3000E14389B20840288101E070203070584692
:102F400001F050FF2DE02889C04380B200EA070459
:102F5000BC4206D1B8F1010F05D128892043288150
:102F600001E070203070584601F03CFF19E02889DC
:102F7000C04380B200EA070434B1B8F1010F05D1B3
:102F800028892043288101E070203070584601F0E4
:102F900029FF06E0584601F025FF00246F2030701D
:102FA00000BF00BF204687E72DE9F04106460D46E9
:102FB0000027F848007820B1102028700020BDE8D4
:102FC000F08101F00BFF0746F348046884B1006804
:102FD0004068F1490860052020702681002060606B
:102FE000EEA0E060384601F0FDFE0020287004E00D
:102FF000384601F0F7FE722028702046DFE730B532
:1030000001464A6808682AB9CC68606028B1002582
:10301000456002E0106000B142608B6800255D628F
:1030200030BDF0B506460F46B468002004F1280410
:1030300060602780207A00F0DF0020724FF00000EF
:103040006072207AA4F12804A8B904F13404A078AD
:10305000D349097840EA0100D14908702078D14964
:10306000085C617840EA010014F83419CD4A5054E4
:103070004FF0010500E000253046FFF7C0FF28466D
:10308000F0BD2DE9F0470446894615464FF0000A89
:10309000C048007820B10F2028702046BDE8F08796
:1030A0002078052803D0012028702046F6E701F09B
:1030B00095FE8246606808B1012700E00027B9F15B
:1030C000000F03D0B9F1010F3CD119E08FB9B3A0C3
:1030D000E06000202070B04800686060002020811F
:1030E000AD480460504601F07DFE002028700026A7
:1030F00005E0504601F076FE49202870264628E07B
:10310000D4F8048005E000214046FFF78AFFD8F894
:103110000080B8F1000FF6D1A0A0E0600020207080
:103120009D4800686060002020819B4804605046F4
:1031300001F058FE012F01D1FFF7FDFB00202870A0
:10314000002606E0504601F04DFE07202870264676
:1031500000BF00BF3046A1E72DE9F04105460E460D
:10316000144600278B48007820B1112020700020E1
:10317000BDE8F08101F032FE07462878052806D028
:10318000384601F02FFE012020700020F0E7E868AB
:1031900030603068FFF7C1FD8046384601F022FEFE
:1031A000002020704046E3E72DE9F04105460E4639
:1031B000144600277748007818B112202070BDE827
:1031C000F08101F00BFE07462878052805D0384627
:1031D00001F008FE01202070F1E7EE60384601F0B2
:1031E00001FE0020207000BFE9E7F0B51446059EFF
:1031F0006D4F3F6897F8307047F02007DFF8A8C19F
:10320000DCF800C08CF830700027DFF89CC1DCF8D7
:1032100000C08CF83170644F3F68FE62624F3F68B7
:1032200079620C828B74604F3F688F6047680F60D3
:1032300000274F60C860456805B1696041605A4F1A
:103240003F6897F83420574FBF5CDFF85CC1DCF86B
:1032500000C09CF835C06FEA0C0C0CF0FF0C07EABC
:103260000C07DFF840C10CF802706746BF5C7FB9FD
:103270004D4F3F6897F83670FF43FFB2DFF820C12B
:103280009CF800C007EA0C07DFF814C18CF8007046
:10329000F0BD2DE9FF4F87B005460F469146149EBD
:1032A000002001903B48007828B1022030700020B7
:1032B0000BB0BDE8F08F3D48007818B10D2030709C
:1032C0000020F5E72878052803D001203070002081
:1032D000EEE709F0800ABAF1000F04D009F07F0987
:1032E0004FF0010801E04FF0000801F077FD019078
:1032F000B9F1000F5CD0B9F1010F7ED0B9F1020F26
:1033000003D0B9F1030F6BD122E0288900EA07044A
:10331000BC4211D1B8F1010F04D12889E14389B22F
:1033200008402881204800680485019801F05AFD72
:10333000002030702046BBE70A9B00934B463A467C
:1033400002A92846FFF751FF019801F04BFD7EE0EE
:10335000288900EA07048CB1B8F1010F04D128894B
:10336000E14389B2084028810F480068048501982C
:1033700001F038FD00203070204699E70A9B009349
:103380004B463A4602A92846FFF72FFF019801F065
:1033900029FD5CE065000020540000203F00000093
:1033A000690000206A0000207800002066000020EC
:1033B0002889C04380B200EA0704BC4211D1B8F1A9
:1033C000010F02D1288920432881C748006804855D
:1033D000019801F007FD00203070204668E70CE0FE
:1033E0002DE00A9B00934B463A4602A92846FFF778
:1033F000FCFE019801F0F6FC29E02889C04380B268
:1034000000EA07047CB1B8F1010F02D128892043FA
:103410002881B54800680485019801F0E3FC00208C
:103420003070204644E70A9B00934B463A4602A977
:103430002846FFF7DAFE019801F0D4FC07E0019876
:1034400001F0D0FC00246F203070204630E700BF30
:10345000FFF771FA01F0C2FC0190A348006890F8F0
:10346000310020B3A048006890F831B000209E4998
:10347000096881F8310002A8FFF7C1FD00209A49D0
:10348000096881F83000019801F0ACFC0024BBF120
:10349000010F06D0BBF1020F02D10E20307003E005
:1034A00000BF0A20307000BF00BF204600E78E48F2
:1034B0000068048DB8F1010F20D1B9F1000F10D0D0
:1034C000B9F1010F0ED0B9F1020F03D0B9F1030F1A
:1034D0000CD100E000BF2889E14389B2084028816F
:1034E0000BE000BF28892043288106E0019801F005
:1034F00079FC6F2030700020DAE600BF019801F0FF
:1035000071FC002030702046D2E670B5002501F035
:1035100065FC054674480068048D284601F062FC8D
:10352000204670BD2DE9FC5F0446894692461E4642
:10353000002000902078052804D001203070002061
:10354000BDE8FC9F01F04AFC0090BAF1000F03D0E7
:10355000BAF1010F0CD106E020896FEA090189B2A6
:10356000084020810BE0208940EA0900208106E024
:10357000009801F037FC712030700020E0E700BFB8
:103580004FF0000B656859E0A87C40B301283AD0A1
:10359000022802D0032848D111E02089298A00EAB4
:1035A0000107288AB84209D139462846FFF739FD74
:1035B0008046B8F1010F01D14FF0010B3CE02089AA
:1035C000298A00EA01074FB139462846FFF729FD4D
:1035D0008046B8F1010F01D14FF0010B2CE020899A
:1035E000C04380B2298A00EA0107288AB84209D17B
:1035F00039462846FFF715FD8046B8F1010F01D185
:103600004FF0010B18E02089C04380B2298A00EAFC
:1036100001074FB139462846FFF703FD8046B8F150
:10362000010F01D14FF0010B06E0009801F0DAFB29
:103630006F203070002083E700BF2D68002DA3D1DC
:10364000009801F0CFFBBBF1010F01D1FFF773F937
:1036500001F0C4FB009020890190009801F0C2FBAA
:103660000020307001986BE72DE9F04104460D46CB
:1036700000272078052804D0012028700020BDE80C
:10368000F08101F0ABFB07462689384601F0AAFB22
:10369000002028703046F2E72DE9F0415021134810
:1036A000FFF738F800250EE0681C86B20F4800EBE3
:1036B000051400EB0617002020706760AFF224307D
:1036C000E060681C85B2042DEED3084800EB0514B9
:1036D000002020706060AFF23C30E0600348044995
:1036E0000860BDE8F081000078000020900900200B
:1036F0005400002070B5044600262078012801D02F
:10370000002070BD01F06AFB06466568002060601D
:10371000304601F067FB2846F3E770B50546002602
:10372000E348007808B1002070BD01F057FB064661
:10373000E0480468006820B1DE4800684068DD4960
:103740000860304601F04EFB3CB1012020700020A3
:10375000208165602046FFF7C8FA2046E4E72DE99E
:10376000F0470446884615464FF0000920780128A6
:1037700004D0012028702046BDE8F087CC480078AE
:1037800018B10F2028702046F6E701F027FB81468C
:10379000A07A08B1012700E00027B8F1000F03D09C
:1037A000B8F1010F35D117E07FB900202070C14872
:1037B0000068606000202081BE480460484601F037
:1037C00011FB00202870002605E0484601F00AFBA6
:1037D00049202870264623E005E0002302221946EE
:1037E0002046FFF708FAA07A0028F6D12070B148E9
:1037F0000068606000202081AE480460484601F007
:10380000F1FA012F01D1FFF796F800202870002669
:1038100006E0484601F0E6FA07202870264600BF79
:1038200000BF3046A8E72DE9F04105460F46144693
:103830004FF000082878012804D0012020700020D3
:10384000BDE8F0819A48007818B10220207000206D
:10385000F6E79948007818B10D2020700020EFE7B6
:1038600001F0BCFA80466E6846B1002068604046B0
:1038700001F0B8FA002020703046E1E78F48006878
:1038800090F8300040F002008C49096881F830005F
:1038900000208A49096881F8310088480068C762B9
:1038A0002846FFF7E6F9404601F09CFAFFF743F897
:1038B00001F094FA80468148006890F8310020B108
:1038C00001280DD002280AD105E07C480068066A6C
:1038D000002020700DE000260E20207009E000BFBF
:1038E000294676480068FFF76DF900260A20207007
:1038F00000BF00BF00207149096881F830006F499E
:10390000096881F831006D490968C8616B49096827
:103910000862404601F066FA304691E72DE9F04131
:1039200004460F4615464FF000082078012804D0C1
:10393000012028700020BDE8F08101F04FFA804698
:10394000A07A20B300267FB1012F0CD107E002231B
:103950001A4600212046FFF74EF9701CC6B2A07A25
:103960000028F4D109E000BF02231A4600212046B6
:10397000FFF741F9701CC6B200BF00BF404601F01E
:1039800031FAFEF7D8FF0E2028703046D3E74046C4
:1039900001F028FA0020287000BFCCE770B504467B
:1039A0000D4600262078012801D0012070BD01F0CD
:1039B00015FA0646A07A60B1002302222946204665
:1039C000FFF719F9304601F00DFAFEF7B4FF0020B9
:1039D000ECE7606820B1304601F004FA1420E5E716
:1039E0006560304601F0FEF90020DFE72DE9F04187
:1039F00004460E46154600272078012802D00120F3
:103A0000BDE8F08101F0EAF90746A07AE8B115F0C7
:103A1000010F0AD005E00023022231462046FFF7BD
:103A2000EAF8A07A0028F6D105E000230222314608
:103A30002046FFF7E0F8384601F0D4F915F0040FFE
:103A400001D1FEF778FF0020DAE7606820B1384640
:103A500001F0C8F91420D3E76660384601F0C2F9D6
:103A60000020CDE72DE9F04704460D464FF0000950
:103A70002078012802D00120BDE8F08701F0AEF9DE
:103A80008146A07A287304F10B0705F1040800268B
:103A900005E017F8010B08F8010B701CC6B2082EE0
:103AA000F7D360682860484601F09CF90020E3E7FE
:103AB00065000020500000206600002078000020F3
:103AC0002DE9F04106460D464FF0000830780228F7
:103AD00004D0012028700020BDE8F08101F07EF9BB
:103AE00080467468E08A78B12169081D20610F68FA
:103AF000E08A401EE082A1682069884201D16068A6
:103B000020610020287002E01F2028700027404616
:103B100001F068F93846DFE72DE9F04106460F4627
:103B20004FF00008FF48007810B10020BDE8F08198
:103B300001F054F98046FC480568006820B1FA4855
:103B400000684068F8490860404601F04BF93DB311
:103B500001F044F98046F5480468C4B10068006883
:103B6000F2490860404601F03DF9666006EB8700C7
:103B7000A060E6602661A7820020E0820220287013
:103B8000002028816C602846FFF7AFF808E0E6487F
:103B900000686860E4480560404601F023F90025AC
:103BA0002846C3E72DE9F0470446894615464FF0FD
:103BB000000A2078022804D0012028702046BDE8A1
:103BC000F087D848007818B10F2028702046F6E713
:103BD00001F004F98246A07A10B14FF0010801E02B
:103BE0004FF00008B9F1000F03D0B9F1010F45D132
:103BF0001FE0B8F1000F15D16668CC48006830604E
:103C0000CA48066000202070C74800686060002035
:103C10002081C5480460504601F0E4F80020287077
:103C2000002705E0504601F0DDF8492028702746BE
:103C30002BE005E00023042219462046FEF7DBFFB7
:103C4000A07A0028F6D16668B84800683060B748A6
:103C5000066000202070B448006860600020208169
:103C6000B1480460504601F0BDF8B8F1010F01D130
:103C7000FEF761FE00202870002706E0504601F0A4
:103C8000B1F807202870274600BF00BF384696E7E6
:103C900070B50546002601F0A1F806466C6860681C
:103CA000E060606820610020E082304601F09AF810
:103CB000002070BD2DE9F0470746884615464FF0B5
:103CC00000093878022804D0012028700020BDE8BF
:103CD000F0879448007818B1022028700020F6E799
:103CE0009348007818B10D2028700020EFE701F00C
:103CF00075F881467C68E08A98B12169081D2061C9
:103D00000E68E08A401EE082A1682069884201D1E5
:103D100060682061484601F065F800202870304650
:103D2000D5E78448006890F8300040F004008149ED
:103D3000096881F8300000207E49096881F8310067
:103D40007C480068C0F82C803846FEF792FF484651
:103D500001F048F8FEF7EFFD01F040F881467548A4
:103D6000006890F8310020B101280DD002280AD156
:103D700005E070480068066A002028700DE0002603
:103D80000E20287009E000BF39466A480068FEF737
:103D900019FF00260A20287000BF00BF00206549D7
:103DA000096881F830006349096881F83100614988
:103DB0000968C8615F4909680862484601F012F85D
:103DC000304684E72DE9F04104460F4615464FF092
:103DD00000082078022804D0012028700020BDE8C7
:103DE000F08100F0FBFF8046A07A20B300267FB16F
:103DF000012F0CD107E00223042200212046FEF708
:103E0000FAFE701CC6B2A07A0028F4D109E000BF07
:103E10000223042200212046FEF7EDFE701CC6B2EC
:103E200000BF00BF404600F0DDFFFEF784FD0E201E
:103E300028703046D3E7404600F0D4FF00202870B9
:103E400000BFCCE72DE9F04105460E460027287853
:103E5000022802D00120BDE8F08100F0BFFF074634
:103E6000A87A60B10023042231462846FEF7C3FE3B
:103E7000384600F0B7FFFEF75EFD0020EBE76C6808
:103E8000E08AA18A884204DB384600F0ABFF1E209E
:103E9000E1E7E168081DE0600E60E08A401CE08216
:103EA000D4E90210884201D16068E060384600F031
:103EB00099FF0020CFE72DE9F04105460E46002787
:103EC0002878022802D00120BDE8F08100F086FFAA
:103ED0000746A87A60B10023042231462846FEF73F
:103EE0008AFE384600F07EFFFEF725FD0020EBE756
:103EF0006C68E08AA18A884204DB384600F072FFD1
:103F00001E20E1E761682069884201D1A068206134
:103F10002069001F206120690660E08A401CE08261
:103F2000384609E065000020500000208C00002089
:103F3000660000207800002000F054FF0020C3E756
:103F40002DE9F04105460F4616464FF00008287847
:103F5000022802D00120BDE8F08100F03FFF80463A
:103F6000A87AE8B116F0010F0AD005E00023042278
:103F700039462846FEF73FFEA87A0028F6D105E02C
:103F80000023042239462846FEF735FE404600F05D
:103F900029FF16F0040F01D1FEF7CDFC0020DAE76F
:103FA0006C68E08AA18A884204DB404600F01AFF70
:103FB0001E20D0E716F0020F0BD0616820698842FE
:103FC00001D1A06820612069001F2061206907607D
:103FD00009E0E168081DE0600F60D4E90210884242
:103FE00001D16068E060E08A401CE082404600F059
:103FF000F9FE0020AFE72DE9F04705460C464FF0EB
:10400000000A2878022802D00120BDE8F08700F0DD
:10401000E5FE8246A87A207405F10B0804F1080930
:10402000002705E018F8010B09F8010B781CC7B24E
:10403000082FF7D36E68F08A18B1306900682060E5
:1040400001E000202060F08AA080B08AE080504625
:1040500000F0C8FE0020D8E72DE9F0417821104893
:10406000FEF758FB00240DE0601C86B204EB440010
:104070000B4901EBC00506EB460001EBC0072F60C2
:10408000601C84B2042CEFD304EB4400044901EB20
:10409000C00500202860084602490860BDE8F0819C
:1040A000D01200208C00002070B504460026207835
:1040B000032801D0002070BD00F090FE064625893F
:1040C00015B12089401E2081304600F08BFE284625
:1040D000F1E770B505460026D248007808B1002007
:1040E00070BD00F07BFE0646CF480468006820B132
:1040F000CD4800684068CC490860304600F072FE48
:104100003CB1032020702581002060602046FEF72E
:10411000ECFD2046E4E72DE9F047044688461546C5
:104120004FF000092078032804D001202870204691
:10413000BDE8F087BB48007818B10F2028702046F2
:10414000F6E700F04BFE8146A07A08B1012700E0B7
:104150000027B8F1000F03D0B8F1010F35D117E0F7
:104160007FB900202070B048006860600020208186
:10417000AD480460484600F035FE00202870002657
:1041800005E0484600F02EFE49202870264623E030
:1041900005E00023012219462046FEF72CFDA07AF7
:1041A0000028F6D12070A0480068606000202081BF
:1041B0009D480460484600F015FE012F01D1FEF72E
:1041C000BAFB00202870002606E0484600F00AFEF0
:1041D00007202870264600BF00BF3046A8E72DE91B
:1041E000F04105460E46144600272878032803D0E0
:1041F00001202070BDE8F0818A48007810B10220CB
:104200002070F7E78948007810B10D202070F1E7A1
:1042100000F0E4FD0746288940B12889401E288126
:10422000384600F0DFFD00202070E3E7804800689A
:1042300090F8300040F001007D49096881F83000B5
:1042400000207B49096881F8310079480068C6621E
:104250002846FEF70EFD384600F0C4FDFEF76BFB66
:1042600000F0BCFD07467248006890F8310020B1AC
:10427000012809D0022806D102E0002020700BE0BE
:104280000E20207008E000BF294669480068FEF74C
:1042900099FC0A20207000BF00BF00206449096813
:1042A00081F830006249096881F831006049096885
:1042B000C861384600F096FD00BF9BE72DE9F0414C
:1042C00004460F4615464FF000082078032804D016
:1042D000012028700020BDE8F08100F07FFD8046BD
:1042E000A07A20B300267FB1012F0CD107E0022372
:1042F000012200212046FEF77EFC701CC6B2A07A87
:104300000028F4D109E000BF022301220021204649
:10431000FEF771FC701CC6B200BF00BF404600F043
:1043200061FDFEF708FB0E2028703046D3E74046BB
:1043300000F058FD0020287000BFCCE770B504469F
:1043400000252078032801D0012070BD00F046FD33
:104350000546A07A60B10023012219462046FEF7E7
:104360004AFC284600F03EFDFEF7E5FA0020ECE7A7
:1043700020894FF6FF71884207D22089401C208196
:10438000284600F02FFD0020DFE7284600F02AFD38
:104390003320DAE72DE9F04704460D464FF00009D7
:1043A0002078032802D00120BDE8F08700F016FD38
:1043B0008146A07AA87204F10B0705F102080026D5
:1043C00005E017F8010B08F8010B701CC6B2082EA7
:1043D000F7D320892880484600F004FD0020E3E759
:1043E0002DE9F04104460E461546002720780328A3
:1043F00003D001202870BDE8F08100F0EFFC0746F3
:1044000000202870208908B1268105E0A07A08B92B
:10441000268101E049202870384600F0E3FC00BF07
:10442000E9E7000065000020500000206600002041
:10443000780000202DE9FF5F81468846002000902B
:1044400000F0CCFC0090F94850F8280030B10098FA
:1044500000F0C8FC282004B0BDE8F09FB9F1FF0FC0
:1044600003D1F348006890F83290F04850F82940A2
:1044700024B9009800F0B6FC2920ECE7012C04D107
:10448000009800F0AFFC4320E5E74FEAE80608F0AB
:10449000070003900120B04000F0FF0A01210398BB
:1044A0008140C8B202900020E04941F82900084646
:1044B00040F8284094F8347094F83600019094F84D
:1044C00035B0DC48C05D10EA0B0F1ED0D948C05D86
:1044D0006FEA0B01C9B20840D649C8550846C05D0D
:1044E00038B9D54800780199C943C9B20840D249C2
:1044F0000870D148007840EA0A00CF490870CD48DA
:10450000805D02990843CB498855E569F5B105F10D
:104510000B00C05D6FEA0B01C9B2084005F10B0149
:10452000C8550846C05D28B9A87A0199C943C9B2DF
:104530000840A872A87A40EA0A00A87205F10B00A8
:10454000805D0299084305F10B01885504F8328F0C
:10455000A6700398607084F804A00298E070A4F13B
:104560003204009800F03EFCB4480078012801D1E4
:10457000FEF7E1F900206EE72DE9FE4F06460F46F3
:1045800090461C464FF0000900F028FC8146AC48DC
:10459000007828B1484600F025FC3C20BDE8FE8F9D
:1045A000A24850F8240058BB0120A04941F824003B
:1045B000484600F017FC002342463946304600F0DA
:1045C0006DFC82460023009301931A465146204613
:1045D0000293FEF7ACFB054635B9984800780128F0
:1045E0000CD1FEF7A8F909E000F0F8FB81460020A5
:1045F0008E4941F82400484600F0F4FB2846CDE7F8
:10460000484600F0EFFB2820C8E712F0010F08D061
:1046100012F0020F05D002E0491E002308C0002955
:10462000FAD170472DE9FF4F85B080468946924602
:104630001C46DDE912B6169F0020039000F0CEFB69
:1046400003907F48007830B1039800F0CBFB3C200A
:1046500009B0BDE8F08F754850F8240088BB0120F0
:10466000724941F82400039800F0BCFB3A463046FA
:104670001499FFF7CAFF3B4652464946404600F0B0
:104680000DFC0490DDE914125B468DE8860032468D
:1046900020460499FEF74BFB054635B9674800787C
:1046A00001280CD1FEF747F909E000F097FB0390D1
:1046B00000205E4941F82400039800F093FB28464F
:1046C000C6E7FFE7039800F08DFB2820C0E72DE93F
:1046D000F041054600275A48007810B14020BDE857
:1046E000F0813F2D01D13E20F9E700F077FB07462E
:1046F000FF2D03D14E48006890F832504B4850F8D7
:10470000254024B9384600F06DFB4320E7E7012C33
:1047100004D1384600F066FB3D20E0E714F8340F82
:104720004449085C6178C943C9B208402178414ACC
:10473000505414F834091146085C40B994F8360016
:10474000C043C0B23C49097808403B490870E06961
:1047500018B12046E169FEF735FA666A16B13046AF
:10476000FEF74DFC0020E06284F8300084F8310050
:1047700034480078FF2804D232480078401C314980
:104780000870384600F02EFBFEF71BFA00F026FBFF
:1047900007462C48007820B12A480078401E294955
:1047A0000870204600F077FB27480078401E264915
:1047B000087000201D4941F82500A06930B900208B
:1047C0006169886121496069086005E0D4E90501F3
:1047D0004861D4E9051088611D48006860611C4883
:1047E00004601CA0E064384600F0FCFA134800782E
:1047F000012801D1FEF79FF8002070E72DE9F04174
:10480000044600273F2C02D13E20BDE8F081FF2C5A
:1048100022D100F0E3FA07460548006890F83760B7
:10482000384600F0DFFA3046EFE70000E00D0020E8
:10483000780000206A00002069000020720000203B
:104840006500002066000020730000208400002026
:104850007C0000203F00000000F0C0FA0746E94855
:1048600050F8245025B9384600F0BCFA4320CCE774
:10487000012D04D1384600F0B5FA3D20C5E73F20B0
:1048800085F83700384600F0ADFA0020BDE72DE985
:10489000F04706460F4614464FF00008DA48007805
:1048A00020B1112020700020BDE8F08700F096FABA
:1048B0008046FF2E03D1D548006890F83260D14879
:1048C00050F8265035B9404600F08CFA432020704D
:1048D0000020E9E7012D06D1404600F083FA43208D
:1048E00020700020E0E7E86C38603868FEF715FAC1
:1048F0008146404600F076FA002020704846D3E713
:104900002DE9F04106460F4614464FF00008BE4818
:10491000007818B112202070BDE8F08100F05EFA36
:104920008046FF2E03D1B948006890F83260B54840
:1049300050F826502DB9404600F054FA432020701C
:10494000EAE7012D05D1404600F04CFA43202070E3
:10495000E2E7EF64404600F045FA0020207000BF17
:10496000DAE770B50546002600F038FA0646A54895
:1049700050F8254024B9304600F034FA462070BD86
:10498000012C04D1304600F02DFA4320F7E794F8CB
:10499000300010F0080F2FD014F8300F00F0F7009F
:1049A000207014F8300910BBE06AE0B904F1340457
:1049B000A0789749097840EA010095490870207865
:1049C0009449085C617840EA010014F83419914A6E
:1049D0005054304600F006FA8F480078012809D17B
:1049E000FDF7A9FF06E0304600F0FCF902E0304692
:1049F00000F0F8F90020C2E7304600F0F3F9442057
:104A0000BDE72DE9F04707460D464FF0000A0020AC
:104A10002860686000F0E2F98246FF2F03D17B48EE
:104A2000006890F83270774850F827402CB950460B
:104A300000F0D8F94320BDE8F087012C04D150469E
:104A400000F0D0F94320F6E7208A10F0010F04D1DE
:104A5000504600F0C7F94520EDE70026D4F80C9049
:104A6000D4F80880504600F0BDF900E0761C58F8F4
:104A7000041B0029FAD0B0002860A9EB06008000D2
:104A800068600020D7E72DE9F04105464FF00008A7
:104A900000F0A4F98046FF2D05D15C48006890F82D
:104AA0003250012608E05948006890F83200A842C8
:104AB00001D1012600E00026524850F825402CB9CB
:104AC000404600F08FF94820BDE8F081012C04D168
:104AD000404600F087F94320F6E794F834704D48DB
:104AE000C05D94F83510C943C9B208404949C8555A
:104AF0000846C05D40B994F83600C043C0B244498E
:104B0000097808404249087094F8300040F00800E5
:104B100084F83000404600F065F9012E01D1FDF720
:104B20000AFF0020D0E72DE9F04105460E46002798
:104B300000F054F90746FF2D03D13448006890F87F
:104B40003250304850F825402CB9384600F04AF928
:104B50002920BDE8F081012C04D1384600F042F94B
:104B60004320F6E7542221463046FEF7CCF838467B
:104B700000F038F90020ECE72DE9F04704460E4636
:104B800017464FF0000900F029F98146FF2C02D1A9
:104B90001E48056802E01B4850F8245005F15000FB
:104BA00050F82680484600F01DF900203870404635
:104BB000BDE8F0872DE9F04704460E4617469846B3
:104BC0004FF0000900F00AF98146FF2C02D10F488E
:104BD000056802E00B4850F8245005F1500040F8F9
:104BE0002670484600F0FEF8002088F80000BDE876
:104BF000F08710B50548006800F0A0F9FF20FFF726
:104C000066FD10BDE00D002065000020780000204A
:104C1000690000206A0000207200002070B505467F
:104C200000266748007800B170BD6648007800B182
:104C3000FAE73DB300F0D2F806466348006890F802
:104C400034406248005D6049096891F83510C943F5
:104C5000C9B208405D4908550846005D50B95A4838
:104C6000006890F83600C043C0B25949097808403E
:104C70005749087054480068C562304600F0B2F8E1
:104C8000FDF759FE00BFCFE72DE9F04104460D4680
:104C900016461F464A48007810B15520BDE8F081FD
:104CA0004848007808B13220F8E7B81CC8214843CA
:104CB0004FF47A71B0FBF1F14FF461606043C5EBE2
:104CC000051200EB8200304400EBC00202EB001042
:104CD00001EBC0084046FFF7A1FF0020DEE770B5FA
:104CE000054600263F2D01D32A2070BD00F076F83E
:104CF0000646384850F8254024B9304600F072F88E
:104D00004320F2E7012C04D1304600F06BF8432039
:104D1000EBE7E06A20B9304600F064F85020E4E7A1
:104D20000020E06294F8300010F0370F09D014F83A
:104D3000300F20F03700207001206070A4F13004A3
:104D400002E0002084F8310094F8300010F0080FE1
:104D500018D104F13404A0781D49097840EA010013
:104D60001B49087020781949085C617840EA010005
:104D700014F83419154A5054304600F033F8FDF752
:104D8000DAFD02E0304600F02DF80020ADE770B506
:104D9000002500F023F805460F480468284600F077
:104DA00021F8204670BD70B50446002500F016F8C5
:104DB000054609480460284600F014F870BD00005C
:104DC0006500002066000020780000206A000020B6
:104DD00069000020E00D002090000020EFF310801B
:104DE00072B6704780F310887047204C204D2560C4
:104DF0004FF0000484F309881E4C4FF00105257024
:104E00001D4C4FF08055256062B6FEE730B41A4C59
:104E10004FF08055256030BC704730B4164C4FF0D1
:104E20008055256030BC704700BF72B6EFF3098033
:104E300028B1203880E8F00F10490968086000B5F3
:104E40000F4880475DF804EB0E480F490A7802705E
:104E50000A480E490A680260106890E8F00F203096
:104E600080F309884EF0040E62B6704720ED00E032
:104E70000000FFFF7200002004ED00E07800002039
:104E8000374F0008670000206800002080000020E5
:104E900070477047704770477047704770B5044659
:104EA00010464FF080750560051F28462C606FF096
:104EB0000106051F28462E604FF01236051F2846B2
:104EC0002E604FF00336051F28462E604FF0023645
:104ED000051F28462E607610051F28462E60051FE8
:104EE000284629604FF01136051F28462E604FF0E6
:104EF0001036051F28462E604FF00936051F28463C
:104F00002E604FF00836051F28462E604FF00736FA
:104F1000051F28462E604FF00636051F28462E60D6
:104F20004FF00536051F28462E604FF00436051F4A
:104F300028462E6070BD70477047704770477047B5
:104F40007047704770477047754600F029F8AE46C5
:104F500005006946534620F00700854618B020B585
:104F6000FBF750FEBDE820404FF000064FF0000771
:104F70004FF000084FF0000B21F00701AC46ACE801
:104F8000C009ACE8C009ACE8C009ACE8C0098D466E
:104F900070470446AFF300802046FBF712F900008B
:104FA000004870474813002001487047704700BF11
:104FB0004C13002010B5FFF7F7FF4FF00001016020
:104FC00010BD00000100020001000300010002000A
:104FD00001000400010002000100030001000200C2
:104FE00001000500010002000100030001000200B1
:104FF00001000400010002000100030001000200A2
:10500000010006000100020001000300010002008F
:105010000100040001000200010003000100020081
:105020000100050001000200010003000100020070
:105030000100040001000200010003000100020061
:10504000010007000100020001000300010002004E
:105050000100040001000200010003000100020041
:105060000100050001000200010003000100020030
:105070000100040001000200010003000100020021
:10508000010006000100020001000300010002000F
:105090000100040001000200010003000100020001
:1050A00001000500010002000100030001000200F0
:1050B00001000400010002000100030001000200E1
:1050C00001000000E45000080000002094000000EF
:1050D0006C010008785100089400002014190000A9
:1050E0008801000800000A0007000000000000001E
:1050F00000000000000000000000000000A24A04C0
:105100000000000000000000010203040607080977
:10511000000000000000000000000000000000008F
:105120000102030401020304060708090204060839
:10513000000000000000000000000000000000006F
:10514000000000000000000000000000000000005F
:10515000000000000000000000000000000000004F
:10516000000000000000000000000000000000003F
:08517000000000000000000037
:0400000508000131BD
:00000001FF
